:100000000C9477000C9403030C9499020C94460111
:100010000C94EC010C9403030C9403030C94030361
:100020000C9403030C9403030C9403030C94030338
:100030000C9403030C9403030C9403030C94030328
:100040000C9403030C9403030C9403030C94030318
:100050000C9403030C9403030C9403030C94030308
:100060000C948A020C94BC010C9403030C940303BB
:100070000C9403030C9403030C9403030C940303E8
:100080000C9403030C9403030C9403030C940303D8
:100090000C9403030C9403030C9403030C940303C8
:1000A0000C9403030C9403030C9403030C940303B8
:1000B0000C9403030C9403030C9403030C940303A8
:1000C0000C9403030C9403030C9403030C94030398
:1000D0000C9403030C9403030C9403030C94030388
:1000E0000C9403030C9403034000400A8000112485
:1000F0001FBECFEFCDBFDFE7DEBFE8EEF0E040E0B0
:1001000019C0B791A79137912791079107FD0EC0AC
:1001100097918791EF01F92FE82F0BBF07900D9270
:10012000A217B307D9F7FE011BBE04C01D92A21788
:10013000B307E1F7ED3EF40721F70E94A8020C9403
:06014000A100F894FFCFBE
:100146000F931F93CF93DF930E94850140E054E005
:100156006FEFFA01608320E234E0F901608380E406
:1001660094E07FE3FC017083C0E6D4E06883A0E8F6
:10017600B4E06C9300EA14E0F8016083FA0114829B
:10018600F9011482FC0114821C8214961C921497A5
:10019600F8011482FA01108A118A128A138A148AC3
:1001A600158A168A178AF901108A118A128A138A01
:1001B600148A158A168A178AFC01108A118A128AED
:1001C600138A148A158A168A178A188A198A1A8A25
:1001D6001B8A1C8A1D8A1E8A1F8A50961C9250975B
:1001E60051961C92519752961C92529753961C9276
:1001F600539754961C92549755961C92559756961B
:100206001C92569757961C925797F801108A118A96
:10021600128A138A148A158A168A178AFA0113868D
:10022600168615861486F901138616861586148693
:10023600FC0113861686158614861B861E861D8669
:100246001C861B961C921B971E961C921E971D962B
:100256001C921D971C961C92F8011386168615860D
:100266001486E0EEF5E01186118210821482168261
:10027600178210861582128213821286DF91CF9121
:060286001F910F91089585
:10028C001F920F920FB60F9211240BB60F922F9351
:10029C003F934F935F936F937F938F939F93AF9302
:1002AC00BF93EF93FF938091430180FF07C0E091D0
:1002BC000840F0910940309709F00995809143016D
:1002CC0081FF07C0E0910640F0910740309709F09C
:1002DC00099583E080934301FF91EF91BF91AF911A
:1002EC009F918F917F916F915F914F913F912F9142
:0E02FC000F900BBE0F900FBE0F901F90189525
:10030A00E0E9F4E0808188608193E83984E0F807C5
:10031A00C9F7E0EBF4E0808188608193E83B84E0F0
:10032A00F807C9F7E0E1F4E0808188608193E83159
:10033A0084E0F807C9F7E0E3F4E0808188608193FC
:10034A00E83384E0F807C9F7E0E5F4E080818860E3
:10035A008193E83584E0F807C9F7E0E7F4E08081A3
:0E036A0088608193E83784E0F807C9F70895AA
:100378001F920F920FB60F9211240BB60F922F9364
:100388003F934F935F936F937F938F939F93AF9315
:10039800BF93EF93FF93E0910240F09103403097B1
:1003A80009F0099582E080930D06FF91EF91BF91C6
:1003B800AF919F918F917F916F915F914F913F91F5
:1003C8002F910F900BBE0F900FBE0F901F90189596
:1003D8001F920F920FB60F9211240BB60F922F9304
:1003E8003F934F935F936F937F938F939F93AF93B5
:1003F800BF93EF93FF93E0910440F091054030974D
:1004080009F0099581E080935301FF91EF91BF9125
:10041800AF919F918F917F916F915F914F913F9194
:100428002F910F900BBE0F900FBE0F901F90189535
:1004380040E068ED88E790E00E94F00240E068ED57
:100448008CE790E00E94F00240E168ED81E690E0E0
:100458000E94F00240E068ED80E690E00E94F00221
:1004680040E068ED83E690E00E94F00244E268ED27
:1004780088E690E00E94F00240E068ED82E690E0B5
:080488000E94F00280E00895DB
:10049000E0E4F1E081818111FDCFE0E4F1E0148638
:1004A0001586108611868FEF9FE7828793871782C4
:1004B000158281E08283108A158A128A81E88083FE
:0404C00080E008953B
:1004C400E0E0F6E01182128213821482168613860B
:1004D40081E08487108611868583148A158A128A9E
:0A04E400138A81E8808380E0089508
:1004EE000E94A3000E94C3020E94E8020E941C0206
:1004FE000E94E0020E9462020E9448020E94B6021E
:06050E000E94D8020895CE
:100514001F920F920FB60F9211248F9381E0809354
:0E0524000D068F910F900FBE0F901F9018952F
:100532001F920F920FB60F9211248F9381E0809336
:0E0542008A008F910F900FBE0F901F9018959A
:100550000E9477028FEF92E00E94FA0288950E9433
:0C056000F5028093004090930140F8CF1A
:10056C0040E068ED80E191E00E94F002E0E1F1E012
:0A057C0012821382789480E0089543
:1005860040E068ED80E890E00E94F002E0E8F0E0EC
:080596001186108680E0089533
:10059E00E0E0F6E090819F7D9083808781E0828706
:0205AE000895AE
:1005B000E0EAF0E0148281E08083128280E0089516
:1005C00043E068ED80E590E00E94F00280E008954D
:1005D00040E068ED80E091E00E94F00280E0089544
:0A05E0001BBEFC0164BF40830895B8
:0A05EA00809110069091110608950B
:0A05F4008093084090930940089599
:0805FE0082E40E94CF0208957F
:040606000C94000050
:02000004008278
:090000000000000000C000000037
:00000001FF
