:100000000C9477000C94FD020C9484020C94400133
:100010000C94E6010C94FD020C94FD020C94FD027C
:100020000C94FD020C94FD020C94FD020C94FD0254
:100030000C94FD020C94FD020C94FD020C94FD0244
:100040000C94FD020C94FD020C94FD020C94FD0234
:100050000C94FD020C94FD020C94FD020C94FD0224
:100060000C9493020C94B6010C94FD020C94FD02C6
:100070000C94FD020C94FD020C94FD020C94FD0204
:100080000C94FD020C94FD020C94FD020C94FD02F4
:100090000C94FD020C94FD020C94FD020C94FD02E4
:1000A0000C94FD020C94FD020C94FD020C94FD02D4
:1000B0000C94FD020C94FD020C94FD020C94FD02C4
:1000C0000C94FD020C94FD020C94FD020C94FD02B4
:1000D0000C94FD020C94FD020C94FD020C94FD02A4
:1000E0000C94FD020C94FD024000400A8000112493
:1000F0001FBECFEFCDBFDFE7DEBFE8EEF0E040E0B0
:1001000019C0B791A79137912791079107FD0EC0AC
:1001100097918791EF01F92FE82F0BBF07900D9270
:10012000A217B307D9F7FE011BBE04C01D92A21788
:10013000B307E1F7ED3EF40721F70E94A2020C9409
:06014000A100F894FFCFBE
:10014600CF93DF930E947F0140E054E0FA011082D2
:1001560020E234E0F901108280E494E0FC01108290
:10016600C0E6D4E01882A0E8B4E01C9260EA74E02D
:10017600FB011082FA011482F9011482FC01148237
:100186001C8214961C921497FB011482FA01108AA1
:10019600118A128A138A148A158A168A178AF9010D
:1001A600108A118A128A138A148A158A168A178A5D
:1001B600FC01108A118A128A138A148A158A168AF1
:1001C600178A188A198A1A8A1B8A1C8A1D8A1E8A05
:1001D6001F8A50961C92509751961C925197529690
:1001E6001C92529753961C92539754961C9254976E
:1001F60055961C92559756961C92569757961C9252
:100206005797FB01108A118A128A138A148A158A53
:10021600168A178AFA011386168615861486F90138
:100226001386168615861486FC0113861686158691
:1002360014861B861E861D861C861B961C921B9783
:100246001E961C921E971D961C921D971C961C921C
:10025600FB011386168615861486E0EEF5E01186F8
:1002660011821082148216821782108615821282DB
:0A02760013821286DF91CF910895E4
:100280001F920F920FB60F9211240BB60F922F935D
:100290003F934F935F936F937F938F939F93AF930E
:1002A000BF93EF93FF938091430180FF07C0E091DC
:1002B0000840F0910940309709F009958091430179
:1002C00081FF07C0E0910640F0910740309709F0A8
:1002D000099583E080934301FF91EF91BF91AF9126
:1002E0009F918F917F916F915F914F913F912F914E
:0E02F0000F900BBE0F900FBE0F901F90189531
:1002FE00E0E9F4E0808188608193E83984E0F807D2
:10030E00C9F7E0EBF4E0808188608193E83B84E0FC
:10031E00F807C9F7E0E1F4E0808188608193E83165
:10032E0084E0F807C9F7E0E3F4E080818860819308
:10033E00E83384E0F807C9F7E0E5F4E080818860EF
:10034E008193E83584E0F807C9F7E0E7F4E08081AF
:0E035E0088608193E83784E0F807C9F70895B6
:10036C001F920F920FB60F9211240BB60F922F9370
:10037C003F934F935F936F937F938F939F93AF9321
:10038C00BF93EF93FF93E0910240F09103403097BD
:10039C0009F0099582E080930D06FF91EF91BF91D2
:1003AC00AF919F918F917F916F915F914F913F9101
:1003BC002F910F900BBE0F900FBE0F901F901895A2
:1003CC001F920F920FB60F9211240BB60F922F9310
:1003DC003F934F935F936F937F938F939F93AF93C1
:1003EC00BF93EF93FF93E0910440F0910540309759
:1003FC0009F0099581E080935301FF91EF91BF9132
:10040C00AF919F918F917F916F915F914F913F91A0
:10041C002F910F900BBE0F900FBE0F901F90189541
:10042C0040E068ED88E790E00E94EA0240E068ED69
:10043C008CE790E00E94EA0240E168ED81E690E0F2
:10044C000E94EA0240E068ED80E690E00E94EA0239
:10045C0040E068ED83E690E00E94EA0244E268ED39
:10046C0088E690E00E94EA0240E068ED82E690E0C7
:08047C000E94EA0280E00895ED
:10048400E0E4F1E081818111FDCFE0E4F1E0148644
:100494001586108611868FEF9FE7828793871782D0
:1004A400158281E08283108A158A128A81E880830A
:0404B40080E0089547
:1004B800E0E0F6E011821282138214821686138617
:1004C80081E08487108611868583148A158A128AAA
:0A04D800138A81E8808380E0089514
:1004E2000E94A3000E94BD020E94DA020E9416022C
:1004F2000E94D2020E945C020E9442020E94B0024A
:060502000E94E2020895D0
:100508001F920F920FB60F9211248F9381E0809360
:0E0518008A008F910F900FBE0F901F901895C4
:100526001F920F920FB60F9211248F9381E0809342
:0E0536000D068F910F900FBE0F901F9018951D
:100544000E94710289EF92E00E94F40288950E9451
:0C055400EF028093004090930140F8CF2C
:1005600040E068ED80E191E00E94EA02E0E1F1E024
:0A05700012821382789480E008954F
:10057A0040E068ED80E890E00E94EA02E0E8F0E0FE
:08058A001186108680E008953F
:10059200E0E0F6E090819F7D9083808781E0828712
:0205A2000895BA
:1005A40043E068ED80E590E00E94EA0280E008956F
:1005B40040E068ED80E091E00E94EA0280E0089566
:1005C400E0EAF0E0148281E08083128280E0089502
:0A05D4001BBEFC0164BF40830895C4
:0A05DE008091100690911106089517
:0A05E80080930840909309400895A5
:0805F20082E40E94C902089591
:0405FA000C9400005D
:02000004008278
:090000000000000000C000000037
:00000001FF
